:10000000803102288731EC2F8B170B170800400135
:10001000A300A101A2011F282008FA00FB017A0811
:10002000F1007B08F2007908FC007C08F3008A31BB
:100030004022803101304001A1070030A23D21085B
:100040002307FA007A08860087010108FB007B0875
:10005000A0002008031D2D282E280C280800F800D9
:1000600078080319342835284928F31F38283928F7
:1000700049287009FA007109FB007209FC00730934
:10008000FD00FA0A0319FB0A0319FC0A0319FD0A09
:1000900051287308FD007208FC007108FB0070080D
:1000A000FA007308720471047004031D582859285B
:1000B00062280030F3000030F2000030F100003020
:1000C000F000DA289630F4007408F9007228013044
:1000D000F4007408F9070130FD36FC0CFB0CFA0C37
:1000E000890B6C28FE307D05031D7728782867284A
:1000F0008C280130F4007408F9070130FA07003049
:10010000FB3D0030FC3D0030FD3D0130FD36FC0C78
:10011000FB0CFA0C890B8628FF307D05031D912806
:10012000922879289C280130F9020130FA35FB0D1C
:10013000FC0DFD0D890B9628FC1B9F28A028A628E6
:10014000023079020318A528A62893287918A9282F
:10015000AA28B228FF30FA05FF30FB057F30FC05E6
:10016000FF30FD050310F90C7908F400F501F601E4
:10017000F7011830F435F50DF60DF70D890BBA2897
:100180007408FA047508FB047608FC047708FD047B
:1001900078080319CC28CD28D228F31FD028D128DD
:1001A000D228FD177D08F3007C08F2007B08F100DF
:1001B0007A08F00008004001BF003008C400310890
:1001C000C5003208C6003308C7003408C800350827
:1001D000C9003608CA003708CB004430860000301A
:1001E0008700473FB800B81BF628F8280130F928E7
:1001F00000304001B900BA013908C2003A08C30012
:10020000420843040319052906292429C409C509FC
:10021000C609C709C809C909CA09CB09C40A031D07
:100220002429C50A031D2429C60A031D2429C70A37
:10023000031D2429C80A031D2429C90A031D2429D2
:10024000CA0A031D2429CB0A4101A51B28292929F3
:100250002E29FD304001EC05FF30ED054101250858
:10026000803A4001B80080303802031D3A2901303D
:100270004101240203183D293E294429013040014F
:10028000BD000030BE004C29410125084001BE00E0
:10029000410124084001BD00410123084001C10083
:1002A000410122084001C00042084304031D5929AE
:1002B0005A295E296C1D5D295E296229FF30C0071D
:1002C000FF30C13D1F30CC000030CD004101C701DF
:1002D000D129FF304001CC07FF30CD3D0A30A000CE
:1002E000A101A201A301A401A501A601A70144083F
:1002F000A8004508A9004608AA004708AB0048081E
:10030000AC004908AD004A08AE004B08AF008E3182
:100310001526803140012108F4002008F3008931BE
:10032000CF2180317308303E4001B8004C08A83E10
:100330008600870138088100FF30BD07FF30BE3DD1
:10034000FF30C007FF30C13D0A30A000A101A2016B
:10035000A301A401A501A601A7014408A80045081E
:10036000A9004608AA004708AB004808AC004908A5
:10037000AD004A08AE004B08AF008E31FF26803139
:1003800040012008C4002108C5002208C600230837
:10039000C7002408C8002508C9002608CA00270885
:1003A000CB0040014D08803AB80080303802031D70
:1003B000DB2901304C02031CDE29DF290C2A400115
:1003C0004408450446044704480449044A044B04CD
:1003D000031DEB29EC2969293E08803AB8008030DA
:1003E0003802031DF52901303D020318F829F929C7
:1003F000692940014108803AB80080303802031D65
:10040000032A01304002031C062A072A0C2A400155
:10041000EC180B2A0C2A6929400142084304031DE9
:10042000122A132A172A6C1D162A172A322AFF307D
:10043000CC07FF30CD3D42084304031D202A212A6A
:10044000262A2B30BB000030BC002A2A2D30BB00EE
:100450000030BC003B08B8004C08A83E860087016D
:10046000380881004C08A83EB8003808A4004108AC
:10047000A6004008A5003F088A317F228031400154
:100480002508B1002408B000080040012708803981
:10049000A8002808B1002735A8002808B800A61F22
:1004A000522A532A542A381438080319582A592A28
:1004B000692A380A031D5D2A5E2A662A0030A700D1
:1004C0000030A6000030A5000030A400A617A70148
:1004D000712A0030A7000030A6000030A5000030CF
:1004E000A40023088039A8002808B1062335A800F5
:1004F0002808B900A21F7D2A7E2A7F2A39143908CC
:100500000319832A842A942A390A031D882A892AEE
:10051000912A0030A3000030A2000030A10000307A
:10052000A000A217A3019C2A0030A3000030A20063
:100530000030A1000030A000230822042104200480
:10054000031DA32AA42ABD2A0030A7000030A6005C
:100550000030A5000030A4008030A6047F30A7043E
:100560003108A8002808A7042708A3002608A2002D
:100570002508A1002408A000F82B3808031DC12A73
:10058000C22ACB2A0030A3000030A2000030A10014
:100590000030A000F82B3808A800A9012908AB00FA
:1005A00039082802AA00031CAB032A087F3EB200C8
:1005B00000302B3DB3002708B0002608AF00250807
:1005C000AE002408AD000030A7000030A6000030C7
:1005D000A5000030A4000030B7000030B6000030A5
:1005E000B5000030B400B901332B39080319F92ADA
:1005F000FA2A142B0130AD35AE0DAF0DB00D890BBD
:10060000FB2A0130A435A50DA60DA70D890B022BE1
:10061000B71F0B2B0C2B0D2B24140130B435B50D4B
:10062000B60DB70D890B0E2B23083002031D222BAC
:1006300022082F02031D222B21082E02031D222B2C
:1006400020082D02031C252B262B2F2B37172008C3
:10065000AD022108AE3B2208AF3B2308B03B01307E
:10066000A8002808B9071A303902031C382B392B87
:10067000F52A30082F042E042D040319402B412B9A
:100680005A2B34145A2B0130A435A50DA60DA70DF5
:10069000890B442BB71F4D2B4E2B4F2B24140130AD
:1006A000B435B50DB60DB70D890B502BFF30B20721
:1006B000FF30B33DA61F5D2B5E2B432BB901B71F47
:1006C000622B632B7F2BFF303405A800FF303505EC
:1006D000A900FF303605AA007F303705AB002B0894
:1006E0002A04290428040319762B772B7A2BB901C5
:1006F000B90A7F2B241C7D2B7E2B7F2B772B39086F
:100700000319832B842BAC2B0130A4070030A53DAB
:100710000030A63D0030A73D271C8F2B902BAC2B23
:100720002408A8002508A9002608AA002708AB006D
:100730000130AC00AB37AA0CA90CA80CAC0B9A2B5F
:100740002B08A7002A08A6002908A5002808A4004D
:100750000130B2070030B33D3308803AA800803042
:100760002802031DB52BFF303202031CB82BB92B16
:10077000C62BFF304001B2000030B3000030A700AC
:100780000030A6000030A5000030A400400133086E
:10079000803AA80080302802031DD02B013032029D
:1007A0000318D32BD42BE02B4001B201B30100304E
:1007B000A7000030A6000030A5000030A400B10161
:1007C00040013208A8002808B800381CE82BE92BA3
:1007D000EB2BA617EF2B7F30A8002808A60538368C
:1007E000A8002808A7003108A8002808A704B42AF0
:1007F00008004001E100610886008701403FDF00FA
:10080000413FE0005F08F0006008F100890D893B7E
:100810008909F200F300013080312F208331730801
:100820004001A7007208A6007108A5007008A40086
:100830004630A3008030A2000030A1000030A000AC
:1008400082314522833140012308D1002208D000A3
:100850002108CF002008CE008B31302383314001A6
:100860006108860087014E08C03F4F08C13F590804
:1008700086008701403FDF00413FE0005F08F00055
:100880006008F100890D893B8909F200F30001300D
:1008900080312F20833173084001A7007208A60021
:1008A0007108A5007008A4004630A3008030A200A3
:1008B0000030A1000030A000823145228331400188
:1008C0002308D1002208D0002108CF002008CE0044
:1008D0008B313023833140015908860087014E084F
:1008E000C03F4F08C13F5A0886008701403FDF00E4
:1008F000413FE0005F08F0006008F100890D893B8E
:100900008909F200F300013080312F208331730810
:100910004001A7007208A6007108A5007008A40095
:100920004630A3008030A2000030A1000030A000BB
:1009300082314522833140012308D1002208D000B2
:100940002108CF002008CE008B31302383314001B5
:100950005A08860087014E08C03F4F08C13F5B0818
:1009600086008701403FDF00413FE0005F08F00064
:100970006008F100890D893B8909F200F30001301C
:1009800080312F20833173084001A7007208A60030
:100990007108A5007008A4004330A3000330A20032
:1009A0000030A1000030A000823145228331400197
:1009B0002308D1002208D0002108CF002008CE0053
:1009C0008B313023833140015B08860087014E085C
:1009D000C03F4F08C13F5C0886008701403FDF00F1
:1009E000413FE0005F08F0006008F100890D893B9D
:1009F0008909F200F300013080312F208331730820
:100A00004001A7007208A6007108A5007008A400A4
:100A10004330A3000330A2000030A1000030A0004A
:100A200082314522833140012308D1002208D000C1
:100A30002108CF002008CE008B31302383314001C4
:100A40005C08860087014E08C03F4F08C13F5D0823
:100A500086008701403FDF00413FE0005F08F00073
:100A60006008F100890D893B8909F200F30001302B
:100A700080312F20833173084001A7007208A6003F
:100A80007108A5007008A4004330A3000330A20041
:100A90000030A1000030A0008231452283314001A6
:100AA0002308D1002208D0002108CF002008CE0062
:100AB0008B313023833140015D08860087014E0869
:100AC000C03F4F08C13F5E0886008701403FDF00FE
:100AD000413FE0005F08F0006008F100890D893BAC
:100AE0008909F200F300013080312F20833173082F
:100AF0004001A7007208A6007108A5007008A400B4
:100B00004330A300AA30A2000030A1000030A000B2
:100B100082314522833140012308C1002208C000F0
:100B20002108BF002008BE004230BD001230BC00CA
:100B30001E30BB00B830BA008531B4258331400186
:100B40003D08D1003C08D0003B08CF003A08CE0059
:100B50008B313023833140015E08860087014E08C7
:100B6000C03F4F08C13F080040013D088039C20026
:100B70004208CA003D35C2004208CC00BC1FC12D4E
:100B8000C22DC32D4C144C080319C72DC82DD82DC8
:100B90004C0A031DCC2DCD2DD52D0030BD000030CD
:100BA000BC000030BB000030BA00BC17BD01E02D16
:100BB0000030BD000030BC000030BB000030BA0087
:100BC00041088039C2004208CB004B084A0603198D
:100BD000EA2DEB2DEC2D4A174135C2004208CB001F
:100BE000C01FF32DF42DF52D4B144B080319F92DCF
:100BF000FA2D0A2E4B0A031DFE2DFF2D072E003065
:100C0000C1000030C0000030BF000030BE00C0177F
:100C1000C101122E0030C1000030C0000030BF0002
:100C20000030BE004C084B020318172E182E5C2E05
:100C30004A1F1B2E1C2E202E8030C2004208CA06DE
:100C40004C08C2004208CD004B08C2004208CC004C
:100C50004D08C2004208CB003A08C2004208CD004D
:100C60003E08C2004208BA004D08C2004208BE0059
:100C70003B08C2004208CD003F08C2004208BB004A
:100C80004D08C2004208BF003C08C2004208CD0027
:100C90004008C2004208BC004D08C2004208C00023
:100CA0003D08C2004208CD004108C2004208BD0014
:100CB0004D08C2004208C100CD014B08C200C3016B
:100CC0004308C5004C084202C400031CC503450884
:100CD000803AC60080304602031D702E1A3044024E
:100CE000031C732E742EAC2E40013D083C043B04C3
:100CF0003A04031D7C2E7E2E01307F2E0030C20070
:100D00004208CD000030BD000030BC000030BB0008
:100D10000030BA004B08C2004208CC00B32E4D1C74
:100D2000922E932E992E4D360138C2004208CD00E6
:100D30009B2E0310CD0C3A1C9E2E9F2EA02ECD175D
:100D40000130C200BD37BC0CBB0CBA0CC20BA22ECA
:100D50000130C2004208CC0740014B084C02031C82
:100D6000B22EB32E8F2E4A1BB62EB72EEF2E4C0866
:100D7000031DBB2EBC2EC52E0030BD000030BC00B4
:100D80000030BB000030BA00EB2F3E08BA073F0826
:100D9000BB3D4008BC3D4108BD3D3D1CD02ED12E81
:100DA0007B2F4D1CD42ED52EDB2E4D360138C200A4
:100DB0004208CD00DD2E0310CD0C3A1CE02EE12EB2
:100DC000E22ECD170130C200BD37BC0CBB0CBA0CF3
:100DD000C20BE42E0130C2004208CC077B2F3D0835
:100DE000803AC2004108803A4202031D012F4008A8
:100DF0003C02031D012F3F083B02031D012F3E084B
:100E00003A020318042F052F3D2FFF30C200FF3098
:100E1000C300FF30C400FF30C5003A083E02C600E0
:100E20003B083F3BC7003C08403BC8003D08413BF6
:100E3000C9004608C2074708C33D4808C43D4908E1
:100E4000C53D4508BD004408BC004308BB0042083E
:100E5000BA008030C2004208CA06CD09CD0A4D084A
:100E6000031D332F342F452F0130BA070030BB3D0F
:100E70000030BC3D0030BD3D452F3E08BA023F0862
:100E8000BB3B4008BC3B4108BD3B3D083C043B0428
:100E90003A04031D4C2F4D2F772F4D08031D512F62
:100EA000522F772F0030BD000030BC000030BB0057
:100EB0000030BA00EB2F0130BA35BB0DBC0DBD0DB3
:100EC000890B5C2FCD1F652F662F672F3A144D1CA1
:100ED0006A2F6B2F6E2F0314CD0D702F0310CD0DC5
:100EE0004C080319742F752F772F0130CC02BC1FCB
:100EF0007A2F7B2F5B2FCB01CD1F7F2F802F8E2F43
:100F00004D087F390319852F862F892FCB01CB0AF6
:100F10008E2F3A1C8C2F8D2F8E2F862F4B08031966
:100F2000922F932FC02F0130BA070030BB3D003005
:100F3000BC3D0030BD3D3D1C9E2F9F2FC02F3A0869
:100F4000C2003B08C3003C08C4003D08C500013096
:100F5000C600C537C40CC30CC20CC60BA92F45086C
:100F6000BD004408BC004308BB004208BA004C0A5C
:100F70000319BB2FBC2FC02F0130C2004208CC0781
:100F80004C0A0319C42FC52FCA2F4C08031DC92FA3
:100F9000CA2FD82F0030BD000030BC000030BB008D
:100FA0000030BA004C08031DD62FD72FD82FCA0106
:100FB0004C1CDB2FDC2FDE2FBC17E22F7F30C20052
:100FC0004208BC054C36C2004208BD00CA1FE92FCA
:100FD000EA2FEB2FBD170800410189312A21873103
:100FE000DC004001EC01ED01EE01A0308400003096
:100FF0008500283089313721873140018B31A52B7D
:101254000834430111148931E9218931080043011B
:1012640011158931E92189310800640080010131B7
:10127400890B38290034F200720843018C0089314B
:10128400E92189310800F0004E010F1E4A294B293B
:101294004629700842019A000800613051018D000E
:1012A40070308E008F014030910006309300900121
:1012B40092010800803043018F00083090009101B2
:1012C40092019F308D00400193151316430190162F
:1012D400080089314F2189318A31D52289318931F8
:1012E4008D21893189315C21893180310420893112
:1012F400080068304001EA006A08EB006708DF0074
:101304006608DE006B30EA006A08E00000308A31CB
:101314000F2289310800483042019F0090309D001F
:1013240026309E009F309B0001309C007E01CE1130
:101334004E124001931513160800F3004301911552
:101344008931E921893143010C08F2007208F40063
:101354000F10730C031C9112031891161116893186
:10136400E921893174080800F4007408F200720855
:10137400F300C0290130F2007208F40774088600F3
:1013840087010108031DC729C829BC2973087402F1
:10139400F000F101F01BF10308007408803AF50035
:1013A40080307502031DD829013073020318DB292C
:1013B400DC29E8297309F5007409F600F50A031914
:1013C400F60A7508F3007608F400E8290800082AEC
:1013D4004301901FEE29EF29082A03104001171D2D
:1013E40003140318F629F92940011715FB294001B4
:1013F40017110230F1000430F000BA30890B002AD2
:10140400F00B002AF10B002A0032EF294E010F1CC9
:101414000C2A0D2AEA290F1008004001E3005F0896
:10142400E5005E08E4004101A001A1012D2A643019
:10143400E1006108CE006008E2006208CF006308A2
:101444008D3138258A3140014E084101A007400101
:101454004F084101A13D40016408840065088500EE
:101464001200031D362A372A192A41012108400196
:10147400DF00410120084001DE0008007308031961
:10148400442A452A4A2A7308031D492A4A2A4F2A0C
:101494007108893145218A317E2A7308033E86000A
:1014A4008701160001040319582A592A762A730859
:1014B400033E86008701403FF400413FF500730A74
:1014C40086008701403FF600413FF7007708803AE5
:1014D400F8007508803A7802031D722A74087602AF
:1014E4000318752A762A7E2A730A8600870101303A
:1014F400810741310318810A08004001AB006C1CCC
:10150400842A852A8D2A2B08FD007D08F9002408E9
:10151400803107208A314001A61B912A922A972AFA
:101524002608AA002508A900992AA901AA01A70149
:10153400A801AD2A2030F1000030F20040012B0850
:10154400FD007D08F3008A3140228A3101304001D8
:10155400A7070030A83D2808803AFD002A08803AF1
:101564007D02031DB72A29082702031CBA2ABB2AB5
:101574009C2A40016C18BF2AC02AC82A2B08FD00E7
:101584007D08F9002408803107208A3140012408AD
:101594008931B6218A31400129087007A4002A083C
:1015A400713DA5000800400196019701183098008C
:1015B40099019A0130309100F1309200BF309300CC
:1015C40094010730950030307E01B800F030C3003C
:1015D4006730CE00D9010730E400B901C401CF015E
:1015E400DA01E501BA01C501D001DB01E601FF30F2
:1015F400BB00FF30C600FF30D100FF30DC000730F5
:10160400E700FF30BC00FF30C700FF30D200FF30DE
:10161400DD000F30E80017307D01CB001030920060
:101624000D30930010307E01A60013307D01C500FB
:1016340014307E01A30014307D01C60015307E01F4
:10164400A400BD01BE01BF01C801C901CA01D30183
:10165400D401D501E901EA01EB01080003104001BE
:10166400500D510DD2005208D8005808031D3B2BD1
:101674003C2B452B0030D1000030D0000030CF008F
:101684000030CE00A42B4E08D2004F08D3005008DF
:10169400D4005108D5001F30D536D40CD30CD20C4D
:1016A400890B4E2B5208D6005608D700D017FF30AE
:1016B400CE05FF30CF05FF30D0050030D105963080
:1016C400D802D81F662B672B7F2B5808803A973E89
:1016D40003186D2B6E2B6F2B3C2B0130D136D00CA5
:1016E400CF0CCE0C890B702B0130D2005208D807D6
:1016F400031D7D2B7E2B6F2B942B20305802031C53
:10170400842B852B8F2B3C2B0130CE35CF0DD00D68
:10171400D10D890B872B0130D8025808031D932B58
:10172400942B862B57080319982B992BA42BCE099D
:10173400CF09D009D109CE0A0319CF0A0319D00A57
:101744000319D10A080089316B218B318B170B17D0
:1017540068308C311F248B3103104001171D031492
:101764000318B52BB82B40011715BA2B40011711DC
:10177400D0304101C8004808F500D230C9004908FA
:10178400F600D430CA004A08F700D630CB004B0824
:10179400F800D830CC004C08F900DA30CD004D0800
:1017A400FA00CE308C31A4248B31D0304101C800F2
:1017B40048084001D900D2304101C900490840011C
:1017C400DA00D4304101CA004A084001DB00D630B7
:1017D4004101CB004B084001DC00D8304101CC0072
:1017E4004C084001DD00DA304101CD004D084001D4
:1017F400DE00CE308331F9238B3100304001E60026
:101804009030E70041015B084001E90041015A08BA
:101814004001E80089317B218B3102304101C9004C
:101824000430C800BA30890B152CC80B152CC90B11
:10183400152C0000AE2B80310228F5007535F3001D
:1018440073084001EF000530F4000F30F300F1306D
:10185400890B2A2CF30B2A2CF40B2A2C0000893137
:101864002B218C3140016F0889313D218C31193095
:1018740089313D218C31073089313D218C318931C9
:1018840031218C3189312B218C3140016F08893110
:101894003D218C316B3089313D218C3101308931CE
:1018A4003D218C31893131218C3189312B218C318D
:1018B40040016F0889313D218C311A3089313D2135
:1018C4008C31003089313D218C31893131218C3189
:1018D40089312B218C3140016F0889313D218C31B4
:1018E4001C3089313D218C31003089313D218C31CE
:1018F400893131218C3189312B218C3140016F08A0
:1019040089313D218C311B3089313D218C31183096
:1019140089313D218C31893131218C3189312B211F
:101924008C3140016F0889313D218C313830893147
:101934003D218C31013089313D218C318931312176
:101944008C310800FD0089312B218C3140016F0856
:1019540089313D218C313B3089313D218C318931B4
:1019640031218C3189312B218C3140016F080138B0
:1019740089313D218C31003089319F218C31FB002C
:10198400003089319F218C31FC007D08860087015D
:101994007B08C03F7C08C13F003089319F218C31D6
:1019A400FB00003089319F218C31FC0075088600D2
:1019B40087017B08C03F7C08C13F003089319F21EB
:1019C4008C31FB00003089319F218C31FC0076087A
:1019D400860087017B08C03F7C08C13F0030893105
:1019E4009F218C31FB00003089319F218C31FC0018
:1019F4007A08860087017B08C03F7C08C13F00301D
:101A040089319F218C31FB00003089319F218C3139
:101A1400FC007708860087017B08C03F7C08C13F33
:101A2400003089319F218C31FB00003089319F21A6
:101A34008C31FC007808860087017B08C03F7C0855
:101A4400C13F013089319F218C31FB000030893145
:101A54009F218C31FC007908860087017B08C03FF8
:101A64007C08C13F893131218C3108004001DD00FF
:101A74004E0886008701403FD000413FD100500806
:101A84008400510885001200253A031D4A2D4B2D70
:101A9400F12D4E088600870101308107413103187A
:101AA400810A4101A201A3014001EC01ED01FF30D3
:101AB4004101A400FF30A50040014E0886008701C3
:101AC400403FD000413FD1005008840051088500B8
:101AD4001200643A03196F2D702D812D4E08860073
:101AE4008701403FD000413FD10050088400510895
:101AF40085001200693A031D802D812DBC2D4E08EE
:101B0400860087010130810741310318810A4F089B
:101B14008600870101088400850102308107003FA7
:101B2400D000013FD1005008D5005108D600890DDE
:101B3400893B8909D700D800D900DA00DB00DC0032
:101B44005508B0005608B1005708B2005808B30051
:101B54005908B4005A08B5005B08B6005C08B70021
:101B64005D088031DB208D3140013108CF00300821
:101B7400CE00142E4E0886008701403FD000413F1E
:101B8400D10050088400510885001200253A031D35
:101B9400CC2DCD2DE62D4E0886008701013081071E
:101BA40041310318810A2530F1000030F2005D084C
:101BB400D0005008F3008A3140228D3101304001B9
:101BC400CE000030CF00142E4E088600870101306D
:101BD400810741310318810ACE01CF01142E4E082A
:101BE40086008701403FD000413FD1005008840067
:101BF400510885000008D200D3015208F1005308AF
:101C0400F2005D08D4005408F3008A3140228D317B
:101C140040014E08860087010130810741310318D5
:101C2400810AE02D0800F201283086000030870088
:101C3400473FF000F01F1F2E202E412E4001A8091F
:101C4400A909AA09AB09AC09AD09AE09AF09A80AEB
:101C5400031D3F2EA90A031D3F2EAA0A031D3F2E72
:101C6400AB0A031D3F2EAC0A031D3F2EAD0A031D14
:101C74003F2EAE0A031D3F2EAF0AF201F20A2030B6
:101C8400860000308700473FF000F01F4A2E4B2E9D
:101C94006A2E4001A009A109A209A309A409A50962
:101CA400A609A709A00A031D6A2EA10A031D6A2E0C
:101CB400A20A031D6A2EA30A031D6A2EA40A031D89
:101CC4006A2EA50A031D6A2EA60A031D6A2EA70AF8
:101CD40040012008210422042304240425042604AA
:101CE40027040319762E772ECA2EF101F10A862EC7
:101CF400A035A10DA20DA30DA40DA50DA60DA70D34
:101D04000130F0007008F107A71F892E8A2E7A2E61
:101D140027082F02031DA82E26082E02031DA82E15
:101D240025082D02031DA82E24082C02031DA82E0D
:101D340023082B02031DA82E22082A02031DA82E05
:101D440021082902031DA82E20082802031CAB2EFB
:101D5400AC2EBC2E2008A8022108A93B2208AA3BCD
:101D64002308AB3B2408AC3B2508AD3B2608AE3B1F
:101D74002708AF3BA736A60CA50CA40CA30CA20CF9
:101D8400A10CA00C0130F102031DC92ECA2E8A2E0B
:101D940072080319CE2ECF2EED2EA809A909AA097F
:101DA400AB09AC09AD09AE09AF09A80A031DED2EB4
:101DB400A90A031DED2EAA0A031DED2EAB0A031D6D
:101DC400ED2EAC0A031DED2EAD0A031DED2EAE0A59
:101DD400031DED2EAF0A40012808A0002908A10028
:101DE4002A08A2002B08A3002C08A4002D08A50093
:101DF4002E08A6002F08A7000800F2012030860054
:101E040000308700473FF000F01F092F0A2F2B2FC7
:101E14004001A009A109A209A309A409A509A609C9
:101E2400A709A00A031D292FA10A031D292FA20A0D
:101E3400031D292FA30A031D292FA40A031D292FDB
:101E4400A50A031D292FA60A031D292FA70AF2019B
:101E5400F20A2830860000308700473FF000F01F68
:101E6400342F352F582F4001A809A909AA09AB0915
:101E7400AC09AD09AE09AF09A80A031D542FA90A7C
:101E8400031D542FAA0A031D542FAB0A031D542FFC
:101E9400AC0A031D542FAD0A031D542FAE0A031DB3
:101EA400542FAF0A0130F0007008F2067330860038
:101EB400003087000830F00000301E00F00B5F2F68
:101EC40040012008210422042304240425042604B8
:101ED400270403196E2F6F2FCB2FF101F10A7E2FE8
:101EE400A035A10DA20DA30DA40DA50DA60DA70D42
:101EF4000130F0007008F107A71F812F822F722F85
:101F0400F335F40DF50DF60DF70DF80DF90DFA0D89
:101F140027082F02031DA82F26082E02031DA82F11
:101F240025082D02031DA82F24082C02031DA82F09
:101F340023082B02031DA82F22082A02031DA82F01
:101F440021082902031DA82F20082802031CAB2FF7
:101F5400AC2FBD2F2008A8022108A93B2208AA3BC8
:101F64002308AB3B2408AC3B2508AD3B2608AE3B1D
:101F74002708AF3B7314A736A60CA50CA40CA30C1E
:101F8400A20CA10CA00C0130F102031DCA2FCB2F0F
:101F9400822F72080319CF2FD02FEE2FF309F409E3
:101FA400F509F609F709F809F909FA09F30A031D0D
:101FB400EE2FF40A031DEE2FF50A031DEE2FF60A89
:101FC400031DEE2FF70A031DEE2FF80A031DEE2F53
:101FD400F90A031DEE2FFA0A73084001A0007408E1
:101FE400A1007508A2007608A3007708A400780869
:101FF400A5007908A6007A08A700080054346534BF
:102004006D347034653472346134743475347234BC
:10201400653420343D3420342534643420340A3487
:042024000D34003443
:020000040001F9
:08000000FF3FFF3FFF3FFF3F00
:0A000E008C3FFF3F9F3FFF3FFF3F85
:00000001FF
