:10000000803102288731F32F8B170B170800262821
:100010004301901F0C280D28262803104001171DAE
:100020000314031814281728400117151928400134
:1000300017110230F1000430F000BA30890B1E288D
:10004000F00B1E28F10B1E2800320D284E010F1C4C
:100050002A282B2808280F10080003104001500DF3
:10006000510DD2005208D8005808031D38283928ED
:1000700042280030D1000030D0000030CF000030E6
:10008000CE00A1284E08D2004F08D3005008D4005B
:100090005108D5001F30D536D40CD30CD20C890BA7
:1000A0004B285208D6005608D700D017FF30CE058F
:1000B000FF30CF05FF30D0050030D1059630D80293
:1000C000D81F632864287C285808803A973E031874
:1000D0006A286B286C2839280130D136D00CCF0C17
:1000E000CE0C890B6D280130D2005208D807031DB1
:1000F0007A287B286C28912820305802031C8128FC
:1001000082288C2839280130CE35CF0DD00DD10D65
:10011000890B84280130D8025808031D90289128A3
:1001200083285708031995289628A128CE09CF09B6
:10013000D009D109CE0A0319CF0A0319D00A03192D
:10014000D10A0800F5007535F30073084001EF008F
:100150000530F4000F30F300F130890BAD28F30BBC
:10016000AD28F40BAD2800008E31CE268031400141
:100170006F088E31DA26803119308E31DA268031DF
:1001800007308E31DA2680318E31D42680318E319F
:10019000CE26803140016F088E31DA2680316B30F7
:1001A0008E31DA26803101308E31DA2680318E317F
:1001B000D42680318E31CE26803140016F088E31B9
:1001C000DA2680311A308E31DA26803100308E31D5
:1001D000DA2680318E31D42680318E31CE268031A0
:1001E00040016F088E31DA2680311B308E31DA26DD
:1001F000803100308E31DA26803100308E31DA26BF
:1002000080318E31D42680318E31CE26803140012E
:100210006F088E31DA26803138308E31DA2680311F
:1002200000308E31DA2680318E31D42680310800BC
:10023000FA007A08F80078084101B00000308F31E8
:100240001A2781319C30F800D730890B2529F80B0B
:100250002529000003308F31422781311A30F80000
:10026000F830890B3129F80B3129003203308F31F6
:10027000422781311A30F800F830890B3D29F80BFC
:100280003D29003203308F31422781311A30F80086
:10029000F830890B4929F80B4929003202308F3197
:1002A000422781311A30F800F830890B5529F80BB4
:1002B0005529003228308F31422781310230F90030
:1002C0000430F800BA30890B6329F80B6329F90B65
:1002D000632900320C308F31422781310230F9001E
:1002E0000430F800BA30890B7329F80B7329F90B25
:1002F0007329003201308F31422781310230F900F9
:100300000430F800BA30890B8329F80B8329F90BE4
:100310008329003206308F31422781310230F900C3
:100320000430F800BA30890B9329F80B9329F90BA4
:10033000932900320800F80078080319A029A129A0
:10034000B529F31FA429A529B5297009FA00710957
:10035000FB007209FC007309FD00FA0A0319FB0A8D
:100360000319FC0A0319FD0ABD297308FD00720870
:10037000FC007108FB007008FA0073087204710435
:100380007004031DC429C529CE290030F3000030B4
:10039000F2000030F1000030F000462A9630F40000
:1003A0007408F900DE290130F4007408F9070130FF
:1003B000FD36FC0CFB0CFA0C890BD829FE307D05B0
:1003C000031DE329E429D329F8290130F400740836
:1003D000F9070130FA070030FB3D0030FC3D0030EA
:1003E000FD3D0130FD36FC0CFB0CFA0C890BF229AB
:1003F000FF307D05031DFD29FE29E529082A01306E
:10040000F9020130FA35FB0DFC0DFD0D890B022AB6
:10041000FC1B0B2A0C2A122A023079020318112A1B
:10042000122AFF297918152A162A1E2AFF30FA05E2
:10043000FF30FB057F30FC05FF30FD050310F90C94
:100440007908F400F501F601F7011830F435F50DDF
:10045000F60DF70D890B262A7408FA047508FB04BB
:100460007608FC047708FD0478080319382A392A2D
:100470003E2AF31F3C2A3D2A3E2AFD177D08F30041
:100480007C08F2007B08F1007A08F00008004001C7
:1004900027088039A8002808B1002735A8002808B7
:1004A000B800A61F542A552A562A381438080319AA
:1004B0005A2A5B2A6B2A380A031D5F2A602A682A97
:1004C0000030A7000030A6000030A5000030A400D6
:1004D000A617A701732A0030A7000030A60000303D
:1004E000A5000030A40023088039A8002808B10620
:1004F0002335A8002808B900A21F7F2A802A812A54
:10050000391439080319852A862A962A390A031DBF
:100510008A2A8B2A932A0030A3000030A2000030E0
:10052000A1000030A000A217A3019E2A0030A30062
:100530000030A2000030A1000030A00023082204F7
:1005400021042004031DA52AA62ABF2A0030A700E3
:100550000030A6000030A5000030A4008030A604C2
:100560007F30A7043108A8002808A7042708A300A3
:100570002608A2002508A1002408A000FA2B3808AC
:10058000031DC32AC42ACD2A0030A3000030A200D4
:100590000030A1000030A000FA2B3808A800A90103
:1005A0002908AB0039082802AA00031CAB032A085B
:1005B0007F3EB20000302B3DB3002708B000260874
:1005C000AF002508AE002408AD000030A7000030C1
:1005D000A6000030A5000030A4000030B7000030B5
:1005E000B6000030B5000030B400B901352B390831
:1005F0000319FB2AFC2A162B0130AD35AE0DAF0DC9
:10060000B00D890BFD2A0130A435A50DA60DA70D4F
:10061000890B042BB71F0D2B0E2B0F2B241401302D
:10062000B435B50DB60DB70D890B102B230830026C
:10063000031D242B22082F02031D242B21082E0228
:10064000031D242B20082D02031C272B282B312BC4
:1006500037172008AD022108AE3B2208AF3B230824
:10066000B03B0130A8002808B9071A303902031C32
:100670003A2B3B2BF72A30082F042E042D040319A4
:10068000422B432B5C2B34145C2B0130A435A50D7D
:10069000A60DA70D890B462BB71F4F2B502B512BA7
:1006A00024140130B435B50DB60DB70D890B522B9E
:1006B000FF30B207FF30B33DA61F5F2B602B452BE9
:1006C000B901B71F642B652B812BFF303405A800BF
:1006D000FF303505A900FF303605AA007F30370509
:1006E000AB002B082A04290428040319782B792B42
:1006F0007C2BB901B90A812B241C7F2B802B812BE9
:10070000792B39080319852B862BAE2B0130A407D2
:100710000030A53D0030A63D0030A73D271C912BA1
:10072000922BAE2B2408A8002508A9002608AA00B1
:100730002708AB000130AC00AB37AA0CA90CA80C01
:10074000AC0B9C2B2B08A7002A08A6002908A500A3
:100750002808A4000130B2070030B33D3308803AC6
:10076000A80080302802031DB72BFF303202031C83
:10077000BA2BBB2BC82BFF304001B2000030B300B6
:100780000030A7000030A6000030A5000030A40013
:1007900040013308803AA80080302802031DD22B84
:1007A000013032020318D52BD62BE22B4001B201C7
:1007B000B3010030A7000030A6000030A5000030D3
:1007C000A400B10140013208A8002808B800381C74
:1007D000EA2BEB2BED2BA617F12B7F30A800280876
:1007E000A6053836A8002808A7003108A800280860
:1007F000A704B62A08008E31CE26833140016F0847
:100800008E31DA2683313B308E31DA2683318E31D8
:10081000CE26833140016F0801388E31DA268331CC
:1008200000308F31572783314001DF005F08E80037
:1008300000308F31572783314001DF005F08E1002E
:1008400000308F315727833100308F315727833164
:100850004001DF005F08E20000308F31572783310D
:1008600000308F31572783314001DF005F08E300FC
:1008700000308F315727833100308F315727833134
:100880004001DF005F08E70000308F3157278331D8
:1008900000308F31572783314001DF005F08E400CB
:1008A00000308F315727833100308F315727833104
:1008B0004001DF005F08E50000308F3157278331AA
:1008C00001308F31572783314001DF005F08E60098
:1008D0008E31D426833140016808F0008039031D31
:1008E000FF30F100F200F300013081319B218331B0
:1008F00073084001A7007208A6007108A5007008DF
:10090000A4004630A3008030A2000030A1000030D7
:10091000A00082314722833140012308D100220800
:10092000D0002108CF002008CE0080312D20833157
:1009300040016208F0008039031DFF30F100F20031
:10094000F300013081319B21833173084001A700FE
:100950007208A6007108A5007008A4004630A30024
:100960008030A2000030A1000030A0008231472278
:10097000833140012308D1002208D0002108CF0094
:100980002008CE0080312D20833140016308F00023
:100990008039031DFF30F100F200F3000130813196
:1009A0009B21833173084001A7007208A6007108DB
:1009B000A5007008A4004630A3008030A2000030DB
:1009C000A1000030A000823147228331400123087A
:1009D000D1002208D0002108CF002008CE008031AD
:1009E0002D20833140016408F0008039031DFF3061
:1009F000F100F200F300013081319B218331730853
:100A00004001A7007208A6007108A5007008A400A4
:100A10004330A3000330A2000030A1000030A0004A
:100A200082314722833140012308D1002208D000BF
:100A30002108CF002008CE0080312D2083314001D5
:100A40006508F0008039031DFF30F100F200F3006B
:100A5000013081319B21833173084001A700720866
:100A6000A6007108A5007008A4004330A30003305D
:100A7000A2000030A1000030A00082314722833163
:100A800040012308D1002208D0002108CF0020080F
:100A9000CE0080312D20833140016608F00080397E
:100AA000031DFF30F100F200F300013081319B2182
:100AB000833173084001A7007208A6007108A500E1
:100AC0007008A4004330A3000330A2000030A1004E
:100AD0000030A00082314722833140012308D10039
:100AE0002208D0002108CF002008CE0080312D2020
:100AF000833140016708F0008039031DFF30F100A9
:100B0000F200F300013081319B21833173084001F1
:100B1000A7007208A6007108A5007008A400433061
:100B2000A300AA30A2000030A1000030A000823152
:100B30004722833140012308C1002208C000210858
:100B4000BF002008BE004230BD001230BC001E3085
:100B5000BB00B830BA008531BB25833140013D0868
:100B6000D1003C08D0003B08CF003A08CE008031CD
:100B70002D208331080040013D088039C200420821
:100B8000CA003D35C2004208CC00BC1FC82DC92D8B
:100B9000CA2D4C144C080319CE2DCF2DDF2D4C0A35
:100BA000031DD32DD42DDC2D0030BD000030BC0042
:100BB0000030BB000030BA00BC17BD01E72D00308B
:100BC000BD000030BC000030BB000030BA0041085E
:100BD0008039C2004208CB004B084A060319F12DA8
:100BE000F22DF32D4A174135C2004208CB00C01F39
:100BF000FA2DFB2DFC2D4B144B080319002E012E52
:100C0000112E4B0A031D052E062E0E2E0030C1009C
:100C10000030C0000030BF000030BE00C017C1016E
:100C2000192E0030C1000030C0000030BF0000307D
:100C3000BE004C084B0203181E2E1F2E632E4A1FA7
:100C4000222E232E272E8030C2004208CA064C08CE
:100C5000C2004208CD004B08C2004208CC004D083B
:100C6000C2004208CB003A08C2004208CD003E084C
:100C7000C2004208BA004D08C2004208BE003B084C
:100C8000C2004208CD003F08C2004208BB004D0828
:100C9000C2004208BF003C08C2004208CD00400824
:100CA000C2004208BC004D08C2004208C0003D0816
:100CB000C2004208CD004108C2004208BD004D08F4
:100CC000C2004208C100CD014B08C200C301430865
:100CD000C5004C084202C400031CC5034508803A05
:100CE000C60080304602031D772E1A304402031CD2
:100CF0007A2E7B2EB32E40013D083C043B043A047F
:100D0000031D832E852E0130862E0030C20042083E
:100D1000CD000030BD000030BC000030BB00003012
:100D2000BA004B08C2004208CC00BA2E4D1C992EC6
:100D30009A2EA02E4D360138C2004208CD00A22EB8
:100D40000310CD0C3A1CA52EA62EA72ECD170130D0
:100D5000C200BD37BC0CBB0CBA0CC20BA92E0130B3
:100D6000C2004208CC0740014B084C02031CB92EBC
:100D7000BA2E962E4A1BBD2EBE2EF62E4C08031DF3
:100D8000C22EC32ECC2E0030BD000030BC0000307F
:100D9000BB000030BA00F22F3E08BA073F08BB3D47
:100DA0004008BC3D4108BD3D3D1CD72ED82E822FAA
:100DB0004D1CDB2EDC2EE22E4D360138C2004208DF
:100DC000CD00E42E0310CD0C3A1CE72EE82EE92EC0
:100DD000CD170130C200BD37BC0CBB0CBA0CC20B26
:100DE000EB2E0130C2004208CC07822F3D08803A2A
:100DF000C2004108803A4202031D082F40083C020D
:100E0000031D082F3F083B02031D082F3E083A022E
:100E100003180B2F0C2F442FFF30C200FF30C300EC
:100E2000FF30C400FF30C5003A083E02C6003B0850
:100E30003F3BC7003C08403BC8003D08413BC90060
:100E40004608C2074708C33D4808C43D4908C53D98
:100E50004508BD004408BC004308BB004208BA0076
:100E60008030C2004208CA06CD09CD0A4D08031DD4
:100E70003A2F3B2F4C2F0130BA070030BB3D0030DA
:100E8000BC3D0030BD3D4C2F3E08BA023F08BB3B85
:100E90004008BC3B4108BD3B3D083C043B043A04D0
:100EA000031D532F542F7E2F4D08031D582F592FEC
:100EB0007E2F0030BD000030BC000030BB00003091
:100EC000BA00F22F0130BA35BB0DBC0DBD0D890B38
:100ED000632FCD1F6C2F6D2F6E2F3A144D1C712F69
:100EE000722F752F0314CD0D772F0310CD0D4C08E5
:100EF00003197B2F7C2F7E2F0130CC02BC1F812F4A
:100F0000822F622FCB01CD1F862F872F952F4D0863
:100F10007F3903198C2F8D2F902FCB01CB0A952F62
:100F20003A1C932F942F952F8D2F4B080319992F2F
:100F30009A2FC72F0130BA070030BB3D0030BC3DAF
:100F40000030BD3D3D1CA52FA62FC72F3A08C2007B
:100F50003B08C3003C08C4003D08C5000130C60082
:100F6000C537C40CC30CC20CC60BB02F4508BD005E
:100F70004408BC004308BB004208BA004C0A0319ED
:100F8000C22FC32FC72F0130C2004208CC074C0A22
:100F90000319CB2FCC2FD12F4C08031DD02FD12FCD
:100FA000DF2F0030BD000030BC000030BB0000303F
:100FB000BA004C08031DDD2FDE2FDF2FCA014C1CA9
:100FC000E22FE32FE52FBC17E92F7F30C200420844
:100FD000BC054C36C2004208BD00CA1FF02FF12FDD
:100FE000F22FBD17080041018E31CD268731B100A7
:100FF0004001EF014101AE01AF0140018F316E2F81
:101D9A00083443011114803107208E3108004301B1
:101DAA001115803107208E310800F20072084301B4
:101DBA008C00803107208E310800483042019F0094
:101DCA0090309D0026309E009F309B0001309C0081
:101DDA000800613051018D0070308E008F01403053
:101DEA00910006309300900192010800803043016F
:101DFA008F0008309000910192019F308D004001C0
:101E0A00931513164301901608008E31EE268F3172
:101E1A008F31A5278F318E31E2268F318E31FB2605
:101E2A008F31803104208F310800F3008E31CE26A5
:101E3A008F31410130088E31DA268F317308410122
:101E4A0031048E31DA268F318E31D4268F31080053
:101E5A00F50041012F08F4007408F50475080438E8
:101E6A008F311A278F317508FB398F311A278F3135
:101E7A004230890B3E2F00320800F7004101AF01C2
:101E8A007708F0398F312D278F317708F600033024
:101E9A00F635FF3E031D4D2F7635F0398F312D274C
:101EAA008F310800F30043019115803107208F31EB
:101EBA0043010C08F2007208F4000F10730C031CA3
:101ECA009112031891161116803107208F31740868
:101EDA0008008F310A278F314E30813118218F3116
:101EEA0068308031A2208F3103104001171D03147E
:101EFA000318802F832F40011715852F40011711D2
:101F0A000D12A230E9006908D900A430EA006A0873
:101F1A00DA00A630EB006B08DB00A830EC006C0896
:101F2A00DC00AA30ED006D08DD00AC30EE006E0872
:101F3A00DE00A0308331FB238F31792F80310228D4
:101F4A004001960197011830980099019A013030A2
:101F5A009100F1309200BF30930094010730950050
:101F6A0030307E01B800F030C3006730CE00D901AE
:101F7A000730E400B901C401CF01DA01E501BA0171
:101F8A00C501D001DB01E601FF30BB00FF30C6000E
:101F9A00FF30D100FF30DC000730E700FF30BC0023
:101FAA00FF30C700FF30D200FF30DD000F30E800FD
:101FBA0017307D01CB00103092000D3093001030A5
:101FCA007E01A60013307D01C50014307E01A300F6
:101FDA0014307D01C60015307E01A400BD01BE018A
:101FEA00BF01C801C901CA01D301D401D501E90160
:061FFA00EA01EB01080002
:020000040001F9
:08000000FF3FFF3FFF3FFF3F00
:0A000E008C3FFF3F9F3FFF3FFF3F85
:00000001FF
